{
  "_format": "hh-sol-artifact-1",
  "contractName": "NftCard",
  "sourceName": "contracts/NftCard.sol",
  "abi": [
    {
      "inputs": [],
      "stateMutability": "nonpayable",
      "type": "constructor"
    },
    {
      "inputs": [],
      "name": "description",
      "outputs": [
        {
          "internalType": "string",
          "name": "",
          "type": "string"
        }
      ],
      "stateMutability": "view",
      "type": "function"
    },
    {
      "inputs": [],
      "name": "owner",
      "outputs": [
        {
          "internalType": "address",
          "name": "",
          "type": "address"
        }
      ],
      "stateMutability": "view",
      "type": "function"
    },
    {
      "inputs": [],
      "name": "rarity",
      "outputs": [
        {
          "internalType": "string",
          "name": "",
          "type": "string"
        }
      ],
      "stateMutability": "view",
      "type": "function"
    },
    {
      "inputs": [],
      "name": "title",
      "outputs": [
        {
          "internalType": "string",
          "name": "",
          "type": "string"
        }
      ],
      "stateMutability": "view",
      "type": "function"
    },
    {
      "inputs": [],
      "name": "tokenId",
      "outputs": [
        {
          "internalType": "uint256",
          "name": "",
          "type": "uint256"
        }
      ],
      "stateMutability": "view",
      "type": "function"
    },
    {
      "inputs": [
        {
          "internalType": "address",
          "name": "_to",
          "type": "address"
        }
      ],
      "name": "transfer",
      "outputs": [],
      "stateMutability": "nonpayable",
      "type": "function"
    }
  ],
  "bytecode": "0x608060405234801561001057600080fd5b5033600460006101000a81548173ffffffffffffffffffffffffffffffffffffffff021916908373ffffffffffffffffffffffffffffffffffffffff16021790555061068b806100616000396000f3fe608060405234801561001057600080fd5b50600436106100625760003560e01c806317d70f7c146100675780631a695230146100855780634a79d50c146100a15780637284e416146100bf5780638da5cb5b146100dd578063fef21f0f146100fb575b600080fd5b61006f610119565b60405161007c91906103dc565b60405180910390f35b61009f600480360381019061009a919061045a565b61011f565b005b6100a96101f3565b6040516100b69190610517565b60405180910390f35b6100c7610281565b6040516100d49190610517565b60405180910390f35b6100e561030f565b6040516100f29190610548565b60405180910390f35b610103610335565b6040516101109190610517565b60405180910390f35b60035481565b600460009054906101000a900473ffffffffffffffffffffffffffffffffffffffff1673ffffffffffffffffffffffffffffffffffffffff163373ffffffffffffffffffffffffffffffffffffffff16146101af576040517f08c379a00000000000000000000000000000000000000000000000000000000081526004016101a6906105d5565b60405180910390fd5b80600460006101000a81548173ffffffffffffffffffffffffffffffffffffffff021916908373ffffffffffffffffffffffffffffffffffffffff16021790555050565b6000805461020090610624565b80601f016020809104026020016040519081016040528092919081815260200182805461022c90610624565b80156102795780601f1061024e57610100808354040283529160200191610279565b820191906000526020600020905b81548152906001019060200180831161025c57829003601f168201915b505050505081565b6001805461028e90610624565b80601f01602080910402602001604051908101604052809291908181526020018280546102ba90610624565b80156103075780601f106102dc57610100808354040283529160200191610307565b820191906000526020600020905b8154815290600101906020018083116102ea57829003601f168201915b505050505081565b600460009054906101000a900473ffffffffffffffffffffffffffffffffffffffff1681565b6002805461034290610624565b80601f016020809104026020016040519081016040528092919081815260200182805461036e90610624565b80156103bb5780601f10610390576101008083540402835291602001916103bb565b820191906000526020600020905b81548152906001019060200180831161039e57829003601f168201915b505050505081565b6000819050919050565b6103d6816103c3565b82525050565b60006020820190506103f160008301846103cd565b92915050565b600080fd5b600073ffffffffffffffffffffffffffffffffffffffff82169050919050565b6000610427826103fc565b9050919050565b6104378161041c565b811461044257600080fd5b50565b6000813590506104548161042e565b92915050565b6000602082840312156104705761046f6103f7565b5b600061047e84828501610445565b91505092915050565b600081519050919050565b600082825260208201905092915050565b60005b838110156104c15780820151818401526020810190506104a6565b60008484015250505050565b6000601f19601f8301169050919050565b60006104e982610487565b6104f38185610492565b93506105038185602086016104a3565b61050c816104cd565b840191505092915050565b6000602082019050818103600083015261053181846104de565b905092915050565b6105428161041c565b82525050565b600060208201905061055d6000830184610539565b92915050565b7f5365756c206c652070726f7072696574616972652070657574207472616e736660008201527f65726572206c6120636172746500000000000000000000000000000000000000602082015250565b60006105bf602d83610492565b91506105ca82610563565b604082019050919050565b600060208201905081810360008301526105ee816105b2565b9050919050565b7f4e487b7100000000000000000000000000000000000000000000000000000000600052602260045260246000fd5b6000600282049050600182168061063c57607f821691505b60208210810361064f5761064e6105f5565b5b5091905056fea26469706673582212201ad3af58be41da9af8d44ad4a9d368e7606146db26be47c32a80c8814403002864736f6c63430008110033",
  "linkReferences": {},
  "deployedLinkReferences": {}
}